:1070000055C000006EC000006CC000006AC00000E7
:1070100068C0000066C0000064C0000062C00000DC
:1070200060C000005EC00000C6C400005AC000007E
:1070300058C0000056C0000054C0000052C00000FC
:1070400050C0000093C000004CC000004AC00000C7
:1070500048C0000046C0000044C0000042C000001C
:1070600040C000003EC000003CC000003AC000002C
:1070700038C0000036C0000034C0000032C000003C
:1070800030C000002EC000002CC000002AC000004C
:1070900028C0000026C0000024C0000022C000005C
:1070A00020C000001EC000001CC0000011241FBE34
:1070B000CFEFDAE0DEBFCDBF11E0A0E0B1E0E2E962
:1070C000FEE702C005900D92A23BB107D9F721E07F
:1070D000A2EBB1E001C01D92AB3CB207E1F718D3BF
:1070E000D6C68ECF84E08093E9008091E80085FFCA
:1070F00003C08091F10008958091E8008B77809320
:10710000E8008091E80082FDF0CF8EB38111F9CFC5
:1071100080E0089593E09093E9009091E80095FF56
:107120000AC08093F1005D9884E690E09093B901E5
:107130008093B80108959091E8009E779093E800BD
:107140009091E80090FDEDCF9EB39111F9CF089595
:10715000F89410926F001092810081E085BF15BEF7
:1071600047985D9A289A0C94000008951F920F92F8
:107170000FB60F9211242F938F939F93EF93FF934A
:1071800010928500109284008091B8019091B9010D
:10719000009741F001979093B9018093B801892B32
:1071A00009F45D9A8091B6019091B701009741F082
:1071B00001979093B7018093B601892B09F4289A1F
:1071C0008091B2019091B30101969093B3018093A5
:1071D000B201F0E0E0E085919491019649F0809150
:1071E000B4019091B50101969093B5018093B401DB
:1071F000FF91EF919F918F912F910F900FBE0F9064
:107200001F90189542E061EC82E052D342E161E8C0
:1072100083E04ED342E160E884E04AC38091C30139
:10722000982F9F779132B9F49091C4019032A1F0D8
:10723000913289F4813A79F48091E800877F8093D4
:10724000E80067E070E082E091E066D48091E800B9
:107250008B778093E80008958132E9F78091E80008
:10726000877F8093E80067E070E082E091E0ADD432
:107270008091E8008E77EDCF6F927F928F929F92F0
:10728000AF92BF92CF92DF92EF92FF920F931F9334
:10729000CF93DF9384E08093E9008091E80082FF40
:1072A00028C2289884E690E09093B7018093B601B5
:1072B00019DFC82F853451F58CE49DE19093B50119
:1072C0008093B40107B600FCFDCFF999FECF81E1B0
:1072D00080935700E8958DE01DDF83E08093E900FF
:1072E0009091E8008091E8008E778093E80095FF08
:1072F000F3C18091E80080FFF9C184E08093E90048
:107300008091E8008B778093E800F3C1843511F415
:10731000E9DEE1CF8C34F9F28035E9F2843721F4EB
:1073200084E4F8DE80E0D8CF89E5C136A9F2C13423
:10733000D1F4D8DEC82FD6DE2C2F30E0322F222712
:10734000330F90E0880F991F822B932B092E000C8E
:10735000AA0BBB0B8093BB019093BC01A093BD0112
:10736000B093BE01B8CF83E5C03709F4B5CFC335BC
:1073700049F4C9EAD1E08991CDDE21E0C03BD207D2
:10738000D1F7ABCFC63521F481E3C4DE80E3A4CFCF
:10739000C33731F487E8BEDE85E9BCDE8EE19CCFE1
:1073A000C536B9F4F0E0E0E083E095E08093570063
:1073B000E89507B600FCFDCF90935700E89507B617
:1073C00000FCFDCFE058FF4FE11520E7F20771F711
:1073D00082CF89E0E1E0F0E0C23779F089E0F0E0C7
:1073E000E0E0C63451F089E0E3E0F0E0CE3429F08B
:1073F000C13539F489E0E2E0F0E0809357008491F0
:107400006BCFC23631F489E585DE80E083DE80E82B
:1074100063CFC23419F0C73609F0CEC01092B5015F
:107420001092B4015FDE082F10E0102F00275ADE03
:10743000082B58DED82F8BEB8D0F823010F08FE3A6
:107440004BCF10926F00C73609F045C081E18093A1
:107450005700E895C0E0BB24B3940150110920F413
:1074600082E080936F0039CFC090BB01D090BC0107
:10747000E090BD01F090BE01D634B9F4EC2FF0E0FD
:10748000EC29FD29849146DECC2369F082E0C80E08
:10749000D11CE11CF11CC092BB01D092BC01E09256
:1074A000BD01F092BE01CB25D8CFD701C601B6955C
:1074B000A79597958795D5D42DDEE2E0CE0ED11C09
:1074C000E11CF11CC092BB01D092BC01E092BD0155
:1074D000F092BE01C2CF8090BB019090BC01A09001
:1074E000BD01B090BE01D63441F483E0F401809335
:1074F0005700E89507B600FCFDCF712CC0E066246C
:10750000639424C0D63409F034C0CC2379F1C09000
:10751000BB01D090BC01E090BD01F090BE01E2DD66
:10752000982F872DF6010C0160925700E8951124E1
:10753000F2E0CF0ED11CE11CF11CC092BB01D09235
:10754000BC01E092BD01F092BE01C62501501109B7
:10755000C8F6D63441F485E0F40180935700E895ED
:1075600007B600FCFDCF8DE0D5DD7ACFBBDD782EF0
:10757000ECCFB8DD682F8091BB019091BC01A09148
:10758000BD01B091BE01B695A7959795879571D429
:107590008091BB019091BC01A091BD01B091BE0151
:1075A0000296A11DB11D8093BB019093BC01A093D5
:1075B000BD01B093BE01CACFC33471F4C091BB0109
:1075C000D091BC018FDD90E021E0FE010C01209301
:1075D0005700E89511247FCEC33601F5C090BB015A
:1075E000D090BC01E090BD01F090BE017BDDF601C2
:1075F000E16090E021E00C0120935700E895112410
:10760000F2E0CF0ED11CE11CF11CC092BB01D09264
:10761000BC01E092BD01F092BE015DCECD3661F4B9
:10762000E091BB01F091BC0185E080935700E895A3
:1076300007B600FCFDCF4FCEC23551F4E091BB013F
:10764000F091BC01C591D4918D2F64DD8C2F44CE77
:10765000C434D9F447DD682F8091BB019091BC01FF
:10766000A091BD01B091BE01B695A795979587955C
:1076700000D48091BB019091BC01A091BD01B0915B
:10768000BE010296A11DB11D65CEC436F1F4C090B5
:10769000BB01D090BC01E090BD01F090BE01D701CC
:1076A000C601B695A79597958795DBD333DD22E084
:1076B000C20ED11CE11CF11CC092BB01D092BC01D6
:1076C000E092BD01F092BE0108CECB3109F405CEA7
:1076D000B6CE8EB3882369F08091E80080FFF9CFA1
:1076E0008091E8008E778093E80003CE8EB38111FD
:1076F00000CEDF91CF911F910F91FF90EF90DF901F
:10770000CF90BF90AF909F908F907F906F90089593
:10771000CF93909100081092000884B714BE0FB662
:10772000F894A89520916000286120936000109241
:1077300060000FBE40E820E00FB6F894409361006F
:10774000209361000FBE21E025BF32E035BF3F9A94
:10775000209A559A409361001092610047985D9A73
:10776000289A109289004AEF4093880030936F0066
:1077700033E030938100F0E0E0E0459154914F3FD9
:107780005F4F11F02093BA0181FF33C020910001B7
:10779000291779F1209300087894809101018823BA
:1077A00039F02091B2013091B3012F3E3240B8F34D
:1077B00010920101F8941092000881E08093010179
:1077C0008091BA018111C4DCDED078941092B501A9
:1077D0001092B401CEEF80910101811117C0809108
:1077E000E00081608093E000B3DC90E080E0CF9126
:1077F000089580FF04C02091BA012111E4CF83FFD6
:10780000E3CF809100018913DBCFDECF35DD12D3CA
:107810008091B4019091B50181349F4110F0109294
:1078200001018091BF019091C00101969093C00128
:107830008093BF01292F97FF02C02C2F291B220FF5
:10784000281710F44798C7CF479AC5CF292F30E0A3
:107850002230310571F02330310581F021303105BE
:1078600011F582E190E027E931E0FA0131832083CC
:1078700008958EE390E029E531E0F7CF882349F0C1
:10788000813061F0823079F48AE290E029E031E0E1
:10789000ECCF84E090E025E531E0E7CF8EE190E0A9
:1078A00025E331E0E2CF90E080E030E020E0DDCF82
:1078B0008093E900EBEEF0E0808181608083EDEE63
:1078C000F0E010826093EC0040838091EE00881F0E
:1078D0008827881F08958091C30187FF11C0809178
:1078E000E80082FF06C08091E8008B778093E80073
:1078F00003C08EB38111F3CF08958EB38823E1F3D3
:107900008091E80080FFF9CF8091E8008E77EECF7C
:107910000F931F93CF93DF9341D048D0C8EDD0E0B1
:1079200088818F77888388818068888388818F7D2C
:10793000888319BC1EBA1092C10100EE10E0F80154
:1079400080818B7F808388818160888342E060E0D2
:1079500080E0AEDFE1EEF0E080818E7F8083E2EEBA
:10796000F0E0808181608083808188608083F8017D
:1079700080818E7F8083888180618883DF91CF9131
:107980001F910F910895E7EDF0E080818160808381
:107990008AE482BF81E08093C201BACFE8EDF0E0D3
:1079A00080818E7F80831092E20008951092DA0029
:1079B0001092E10008951F920F920FB60F921124BA
:1079C0002F933F934F935F936F937F938F939F93E7
:1079D000AF93BF93EF93FF938091DA0080FF17C0BE
:1079E0008091D80080FF13C08091DA008E7F809351
:1079F000DA008091D90080FF4EC080E189BD82E12C
:107A000089BD09B400FEFDCF81E08EBB12D280910A
:107A1000E10080FF17C08091E20080FF13C08091D9
:107A2000E2008E7F8093E2008091E200806180938B
:107A3000E2008091D80080628093D80019BC85E074
:107A40008EBBF7D18091E10084FF30C08091E200CD
:107A500084FF2CC080E189BD82E189BD09B400FEAC
:107A6000FDCF8091D8008F7D8093D8008091E10078
:107A70008F7E8093E1008091E2008F7E8093E20010
:107A80008091E20081608093E2008091C1018823AF
:107A900031F084E009C019BC1EBACBD1B8CF8091B7
:107AA000E30087FDF6CF81E08EBBC3D18091E1007A
:107AB00083FF21C08091E20083FF1DC08091E1001F
:107AC000877F8093E10082E08EBB1092C10180919C
:107AD000E1008E7F8093E1008091E2008E7F8093B1
:107AE000E2008091E20080618093E20042E060E089
:107AF00080E0DEDE9ED1FF91EF91BF91AF919F912B
:107B00008F917F916F915F914F913F912F910F9046
:107B10000FBE0F901F901895FC018091C9019091A4
:107B2000CA0186179707A0F06115710529F4909195
:107B3000E8009E779093E80090E06115710551F49C
:107B4000911108C08091E80082FF34C080E0089560
:107B5000BC01F2CF8EB38823B1F1853081F18091E1
:107B6000E80083FD2EC08091E80082FDEBCF80917C
:107B7000E80080FFE2CF2091F3008091F200322FE5
:107B8000282F6115710519F02830310558F091E062
:107B90002830310509F090E02091E8002E772093FD
:107BA000E800CBCF81918093F100615071092F5F84
:107BB0003F4FE7CF8EB3882331F0853019F683E04D
:107BC000089581E0089582E00895FC016115710532
:107BD00029F49091E8009B779093E8006115710576
:107BE00031F48091E80080FF1EC080E008958EB3DC
:107BF000882311F18530E1F08091E80083FD1AC0FF
:107C00008091E80082FFEACF2091F3008091F2009A
:107C1000322F282F232BE9F28091F10081936150BC
:107C2000710991F7D6CF8EB3882331F08530C9F62C
:107C300083E0089581E0089582E008950F931F93F3
:107C4000CF93DF9300D0CDB7DEB7E3ECF1E08091C6
:107C5000F100819381E0EB3CF807C9F7DFDA80910E
:107C6000E80083FF8AC08091C3019091C4019A30DB
:107C700008F083C0E92FF0E0E15CF14CECC0493E34
:107C8000653EBD3E653EBD3E9E3ED23EBD3EF03EA3
:107C9000FC3E823809F071C08091C70187708093E3
:107CA000E9008091EB0085FB882780F91092E900BC
:107CB0009091E800977F9093E8008093F1001092F4
:107CC000F1008091E8008E7722C0282F2D7F09F0E7
:107CD00054C0823009F051C08091C501811112C099
:107CE0008091C701877009F448C08093E900209112
:107CF000EB0020FF07C0933071F48091EB008062AD
:107D00008093EB001092E9008091E800877F8093D8
:107D1000E800E1DD32C09091EB0090619093EB00C0
:107D200021E030E001C0220F8A95EAF72093EA00B3
:107D30001092EA008091EB008860E2CF81111DC0B3
:107D40001091C5011F770FB7F8948091E800877FE5
:107D50008093E800C0DD8091E80080FFFCCF809137
:107D6000E3008078812B8093E30080688093E300B8
:107D700082E0111183E08EBB0FBF8091E80083FF8A
:107D80000AC08091EB0080628093EB008091E80054
:107D9000877F8093E8000F900F90DF91CF911F9124
:107DA0000F9108958058823040F7AE014F5F5F4FCA
:107DB0006091C7018091C5019091C60147DDBC016A
:107DC000892BD9F29091E800977F9093E800898100
:107DD0009A81A2DE8091E8008B778093E800CDCF76
:107DE000803859F68091E800877F8093E800809181
:107DF000C1018093F10065CF8111BFCF9091C50182
:107E0000923008F0BACF8091E800877F8093E80035
:107E10009093C10160DD8091C101882311F084E05D
:107E200005C08091E30087FDFACF81E08EBBEAD9DF
:107E3000A4CF0895CF938EB3882359F0C091E90061
:107E4000C7701092E9008091E80083FDF7DEC093CF
:107E5000E900CF910895EE0FFF1F0590F491E02DFA
:107E60000994F999FECF92BD81BDF89A992780B502
:107E70000895262FF999FECF1FBA92BD81BD20BD6E
:107E80000FB6F894FA9AF99A0FBE01960895F894ED
:027E9000FFCF22
:107E92007701000000000000082A03430069007215
:107EA20000630075006900740020004D006F006ED1
:107EB200006B0065007900200020002000200020D7
:107EC20000200000001E0353006F006C007300745A
:107ED20000690063006500200043006F00720065C6
:107EE20000200000000403090409023E0002010010
:107EF2008032090400000102020100052400100181
:107F0200042402040524060001070582030800FF79
:107F120009040100020A0000000705040210000122
:107F2200070583021000011201100102000008D8A7
:107F32000498EE0100020100014341544552494EAA
:027F42004100FC
:040000030000700089
:00000001FF
